{
  "_format": "hh-sol-artifact-1",
  "contractName": "DrugInventory",
  "sourceName": "contracts/DrugInventory.sol",
  "abi": [
    {
      "inputs": [
        {
          "internalType": "string",
          "name": "_name",
          "type": "string"
        },
        {
          "internalType": "uint256",
          "name": "_quantity",
          "type": "uint256"
        },
        {
          "internalType": "uint256",
          "name": "_expiryDate",
          "type": "uint256"
        }
      ],
      "name": "addDrug",
      "outputs": [],
      "stateMutability": "nonpayable",
      "type": "function"
    },
    {
      "inputs": [],
      "name": "drugCount",
      "outputs": [
        {
          "internalType": "uint256",
          "name": "",
          "type": "uint256"
        }
      ],
      "stateMutability": "view",
      "type": "function"
    },
    {
      "inputs": [
        {
          "internalType": "uint256",
          "name": "",
          "type": "uint256"
        }
      ],
      "name": "drugs",
      "outputs": [
        {
          "internalType": "uint256",
          "name": "id",
          "type": "uint256"
        },
        {
          "internalType": "string",
          "name": "name",
          "type": "string"
        },
        {
          "internalType": "address",
          "name": "manufacturer",
          "type": "address"
        },
        {
          "internalType": "address",
          "name": "currentOwner",
          "type": "address"
        },
        {
          "internalType": "enum DrugInventory.Status",
          "name": "status",
          "type": "uint8"
        },
        {
          "internalType": "uint256",
          "name": "quantity",
          "type": "uint256"
        },
        {
          "internalType": "uint256",
          "name": "manufactureDate",
          "type": "uint256"
        },
        {
          "internalType": "uint256",
          "name": "expiryDate",
          "type": "uint256"
        }
      ],
      "stateMutability": "view",
      "type": "function"
    },
    {
      "inputs": [
        {
          "internalType": "uint256",
          "name": "_drugId",
          "type": "uint256"
        }
      ],
      "name": "getDrug",
      "outputs": [
        {
          "internalType": "uint256",
          "name": "",
          "type": "uint256"
        },
        {
          "internalType": "string",
          "name": "",
          "type": "string"
        },
        {
          "internalType": "address",
          "name": "",
          "type": "address"
        },
        {
          "internalType": "address",
          "name": "",
          "type": "address"
        },
        {
          "internalType": "enum DrugInventory.Status",
          "name": "",
          "type": "uint8"
        },
        {
          "internalType": "uint256",
          "name": "",
          "type": "uint256"
        },
        {
          "internalType": "uint256",
          "name": "",
          "type": "uint256"
        },
        {
          "internalType": "uint256",
          "name": "",
          "type": "uint256"
        }
      ],
      "stateMutability": "view",
      "type": "function"
    },
    {
      "inputs": [
        {
          "internalType": "enum DrugInventory.Role",
          "name": "_role",
          "type": "uint8"
        }
      ],
      "name": "registerUser",
      "outputs": [],
      "stateMutability": "nonpayable",
      "type": "function"
    },
    {
      "inputs": [
        {
          "internalType": "uint256",
          "name": "_drugId",
          "type": "uint256"
        },
        {
          "internalType": "address",
          "name": "_to",
          "type": "address"
        },
        {
          "internalType": "uint256",
          "name": "_quantity",
          "type": "uint256"
        }
      ],
      "name": "transferDrug",
      "outputs": [],
      "stateMutability": "nonpayable",
      "type": "function"
    },
    {
      "inputs": [
        {
          "internalType": "address",
          "name": "",
          "type": "address"
        }
      ],
      "name": "users",
      "outputs": [
        {
          "internalType": "enum DrugInventory.Role",
          "name": "role",
          "type": "uint8"
        },
        {
          "internalType": "bool",
          "name": "exists",
          "type": "bool"
        }
      ],
      "stateMutability": "view",
      "type": "function"
    }
  ],
  "bytecode": "0x6080604052348015600f57600080fd5b50611bf78061001f6000396000f3fe608060405234801561001057600080fd5b506004361061007d5760003560e01c80637577ca371161005b5780637577ca37146100d6578063a87430ba146100f4578063b8840d3d14610125578063fca5e61e1461015c5761007d565b806302b8c8cd146100825780631f73eb721461009e5780634745f040146100ba575b600080fd5b61009c60048036038101906100979190610e9d565b610193565b005b6100b860048036038101906100b39190610f5e565b610375565b005b6100d460048036038101906100cf91906110f7565b6107bd565b005b6100de610aee565b6040516100eb9190611175565b60405180910390f35b61010e60048036038101906101099190611190565b610af4565b60405161011c92919061124f565b60405180910390f35b61013f600480360381019061013a9190611278565b610b32565b60405161015398979695949392919061137b565b60405180910390f35b61017660048036038101906101719190611278565b610d47565b60405161018a98979695949392919061137b565b60405180910390f35b6000803373ffffffffffffffffffffffffffffffffffffffff1673ffffffffffffffffffffffffffffffffffffffff16815260200190815260200160002060000160019054906101000a900460ff1615610222576040517f08c379a00000000000000000000000000000000000000000000000000000000081526004016102199061144c565b60405180910390fd5b60016002811115610236576102356111bd565b5b816002811115610249576102486111bd565b5b14806102785750600280811115610263576102626111bd565b5b816002811115610276576102756111bd565b5b145b6102b7576040517f08c379a00000000000000000000000000000000000000000000000000000000081526004016102ae906114b8565b60405180910390fd5b60405180604001604052808260028111156102d5576102d46111bd565b5b8152602001600115158152506000803373ffffffffffffffffffffffffffffffffffffffff1673ffffffffffffffffffffffffffffffffffffffff16815260200190815260200160002060008201518160000160006101000a81548160ff0219169083600281111561034a576103496111bd565b5b021790555060208201518160000160016101000a81548160ff02191690831515021790555090505050565b60006001600085815260200190815260200160002090506000821180156103a0575080600401548211155b6103df576040517f08c379a00000000000000000000000000000000000000000000000000000000081526004016103d690611524565b60405180910390fd5b600060028111156103f3576103f26111bd565b5b8160030160149054906101000a900460ff166002811115610417576104166111bd565b5b036105fa57600160028111156104305761042f6111bd565b5b6000803373ffffffffffffffffffffffffffffffffffffffff1673ffffffffffffffffffffffffffffffffffffffff16815260200190815260200160002060000160009054906101000a900460ff166002811115610491576104906111bd565b5b146104d1576040517f08c379a00000000000000000000000000000000000000000000000000000000081526004016104c890611590565b60405180910390fd5b6002808111156104e4576104e36111bd565b5b6000808573ffffffffffffffffffffffffffffffffffffffff1673ffffffffffffffffffffffffffffffffffffffff16815260200190815260200160002060000160009054906101000a900460ff166002811115610545576105446111bd565b5b14610585576040517f08c379a000000000000000000000000000000000000000000000000000000000815260040161057c906115fc565b60405180910390fd5b828160030160006101000a81548173ffffffffffffffffffffffffffffffffffffffff021916908373ffffffffffffffffffffffffffffffffffffffff16021790555060018160030160146101000a81548160ff021916908360028111156105f0576105ef6111bd565b5b021790555061079c565b6001600281111561060e5761060d6111bd565b5b8160030160149054906101000a900460ff166002811115610632576106316111bd565b5b036107605760028081111561064a576106496111bd565b5b6000803373ffffffffffffffffffffffffffffffffffffffff1673ffffffffffffffffffffffffffffffffffffffff16815260200190815260200160002060000160009054906101000a900460ff1660028111156106ab576106aa6111bd565b5b146106eb576040517f08c379a00000000000000000000000000000000000000000000000000000000081526004016106e290611668565b60405180910390fd5b828160030160006101000a81548173ffffffffffffffffffffffffffffffffffffffff021916908373ffffffffffffffffffffffffffffffffffffffff16021790555060028160030160146101000a81548160ff02191690836002811115610756576107556111bd565b5b021790555061079b565b6040517f08c379a0000000000000000000000000000000000000000000000000000000008152600401610792906116d4565b60405180910390fd5b5b818160040160008282546107b09190611723565b9250508190555050505050565b6000803373ffffffffffffffffffffffffffffffffffffffff1673ffffffffffffffffffffffffffffffffffffffff16815260200190815260200160002060000160019054906101000a900460ff1661084b576040517f08c379a0000000000000000000000000000000000000000000000000000000008152600401610842906117a3565b60405180910390fd5b6001600281111561085f5761085e6111bd565b5b6000803373ffffffffffffffffffffffffffffffffffffffff1673ffffffffffffffffffffffffffffffffffffffff16815260200190815260200160002060000160009054906101000a900460ff1660028111156108c0576108bf6111bd565b5b14610900576040517f08c379a00000000000000000000000000000000000000000000000000000000081526004016108f79061180f565b60405180910390fd5b428111610942576040517f08c379a00000000000000000000000000000000000000000000000000000000081526004016109399061187b565b60405180910390fd5b60405180610100016040528060025481526020018481526020013373ffffffffffffffffffffffffffffffffffffffff1681526020013373ffffffffffffffffffffffffffffffffffffffff168152602001600060028111156109a8576109a76111bd565b5b8152602001838152602001428152602001828152506001600060025481526020019081526020016000206000820151816000015560208201518160010190816109f19190611aa7565b5060408201518160020160006101000a81548173ffffffffffffffffffffffffffffffffffffffff021916908373ffffffffffffffffffffffffffffffffffffffff16021790555060608201518160030160006101000a81548173ffffffffffffffffffffffffffffffffffffffff021916908373ffffffffffffffffffffffffffffffffffffffff16021790555060808201518160030160146101000a81548160ff02191690836002811115610aab57610aaa6111bd565b5b021790555060a0820151816004015560c0820151816005015560e0820151816006015590505060026000815480929190610ae490611b79565b9190505550505050565b60025481565b60006020528060005260406000206000915090508060000160009054906101000a900460ff16908060000160019054906101000a900460ff16905082565b600060606000806000806000806000600160008b81526020019081526020016000206040518061010001604052908160008201548152602001600182018054610b7a906118ca565b80601f0160208091040260200160405190810160405280929190818152602001828054610ba6906118ca565b8015610bf35780601f10610bc857610100808354040283529160200191610bf3565b820191906000526020600020905b815481529060010190602001808311610bd657829003601f168201915b505050505081526020016002820160009054906101000a900473ffffffffffffffffffffffffffffffffffffffff1673ffffffffffffffffffffffffffffffffffffffff1673ffffffffffffffffffffffffffffffffffffffff1681526020016003820160009054906101000a900473ffffffffffffffffffffffffffffffffffffffff1673ffffffffffffffffffffffffffffffffffffffff1673ffffffffffffffffffffffffffffffffffffffff1681526020016003820160149054906101000a900460ff166002811115610ccd57610ccc6111bd565b5b6002811115610cdf57610cde6111bd565b5b815260200160048201548152602001600582015481526020016006820154815250509050806000015181602001518260400151836060015184608001518560a001518660c001518760e001519850985098509850985098509850985050919395975091939597565b6001602052806000526040600020600091509050806000015490806001018054610d70906118ca565b80601f0160208091040260200160405190810160405280929190818152602001828054610d9c906118ca565b8015610de95780601f10610dbe57610100808354040283529160200191610de9565b820191906000526020600020905b815481529060010190602001808311610dcc57829003601f168201915b5050505050908060020160009054906101000a900473ffffffffffffffffffffffffffffffffffffffff16908060030160009054906101000a900473ffffffffffffffffffffffffffffffffffffffff16908060030160149054906101000a900460ff16908060040154908060050154908060060154905088565b6000604051905090565b600080fd5b600080fd5b60038110610e8557600080fd5b50565b600081359050610e9781610e78565b92915050565b600060208284031215610eb357610eb2610e6e565b5b6000610ec184828501610e88565b91505092915050565b6000819050919050565b610edd81610eca565b8114610ee857600080fd5b50565b600081359050610efa81610ed4565b92915050565b600073ffffffffffffffffffffffffffffffffffffffff82169050919050565b6000610f2b82610f00565b9050919050565b610f3b81610f20565b8114610f4657600080fd5b50565b600081359050610f5881610f32565b92915050565b600080600060608486031215610f7757610f76610e6e565b5b6000610f8586828701610eeb565b9350506020610f9686828701610f49565b9250506040610fa786828701610eeb565b9150509250925092565b600080fd5b600080fd5b6000601f19601f8301169050919050565b7f4e487b7100000000000000000000000000000000000000000000000000000000600052604160045260246000fd5b61100482610fbb565b810181811067ffffffffffffffff8211171561102357611022610fcc565b5b80604052505050565b6000611036610e64565b90506110428282610ffb565b919050565b600067ffffffffffffffff82111561106257611061610fcc565b5b61106b82610fbb565b9050602081019050919050565b82818337600083830152505050565b600061109a61109584611047565b61102c565b9050828152602081018484840111156110b6576110b5610fb6565b5b6110c1848285611078565b509392505050565b600082601f8301126110de576110dd610fb1565b5b81356110ee848260208601611087565b91505092915050565b6000806000606084860312156111105761110f610e6e565b5b600084013567ffffffffffffffff81111561112e5761112d610e73565b5b61113a868287016110c9565b935050602061114b86828701610eeb565b925050604061115c86828701610eeb565b9150509250925092565b61116f81610eca565b82525050565b600060208201905061118a6000830184611166565b92915050565b6000602082840312156111a6576111a5610e6e565b5b60006111b484828501610f49565b91505092915050565b7f4e487b7100000000000000000000000000000000000000000000000000000000600052602160045260246000fd5b600381106111fd576111fc6111bd565b5b50565b600081905061120e826111ec565b919050565b600061121e82611200565b9050919050565b61122e81611213565b82525050565b60008115159050919050565b61124981611234565b82525050565b60006040820190506112646000830185611225565b6112716020830184611240565b9392505050565b60006020828403121561128e5761128d610e6e565b5b600061129c84828501610eeb565b91505092915050565b600081519050919050565b600082825260208201905092915050565b60005b838110156112df5780820151818401526020810190506112c4565b60008484015250505050565b60006112f6826112a5565b61130081856112b0565b93506113108185602086016112c1565b61131981610fbb565b840191505092915050565b61132d81610f20565b82525050565b60038110611344576113436111bd565b5b50565b600081905061135582611333565b919050565b600061136582611347565b9050919050565b6113758161135a565b82525050565b600061010082019050611391600083018b611166565b81810360208301526113a3818a6112eb565b90506113b26040830189611324565b6113bf6060830188611324565b6113cc608083018761136c565b6113d960a0830186611166565b6113e660c0830185611166565b6113f360e0830184611166565b9998505050505050505050565b7f416c726561647920726567697374657265640000000000000000000000000000600082015250565b60006114366012836112b0565b915061144182611400565b602082019050919050565b6000602082019050818103600083015261146581611429565b9050919050565b7f496e76616c696420726f6c650000000000000000000000000000000000000000600082015250565b60006114a2600c836112b0565b91506114ad8261146c565b602082019050919050565b600060208201905081810360008301526114d181611495565b9050919050565b7f496e76616c6964207175616e7469747900000000000000000000000000000000600082015250565b600061150e6010836112b0565b9150611519826114d8565b602082019050919050565b6000602082019050818103600083015261153d81611501565b9050919050565b7f4f6e6c792076656e646f722063616e2073686970000000000000000000000000600082015250565b600061157a6014836112b0565b915061158582611544565b602082019050919050565b600060208201905081810360008301526115a98161156d565b9050919050565b7f526563697069656e74206d757374206265206469737472696275746f72000000600082015250565b60006115e6601d836112b0565b91506115f1826115b0565b602082019050919050565b60006020820190508181036000830152611615816115d9565b9050919050565b7f4f6e6c79206469737472696275746f722063616e2064656c6976657200000000600082015250565b6000611652601c836112b0565b915061165d8261161c565b602082019050919050565b6000602082019050818103600083015261168181611645565b9050919050565b7f4472756720616c72656164792064656c69766572656400000000000000000000600082015250565b60006116be6016836112b0565b91506116c982611688565b602082019050919050565b600060208201905081810360008301526116ed816116b1565b9050919050565b7f4e487b7100000000000000000000000000000000000000000000000000000000600052601160045260246000fd5b600061172e82610eca565b915061173983610eca565b9250828203905081811115611751576117506116f4565b5b92915050565b7f4e6f742072656769737465726564000000000000000000000000000000000000600082015250565b600061178d600e836112b0565b915061179882611757565b602082019050919050565b600060208201905081810360008301526117bc81611780565b9050919050565b7f4e6f7420612076656e646f720000000000000000000000000000000000000000600082015250565b60006117f9600c836112b0565b9150611804826117c3565b602082019050919050565b60006020820190508181036000830152611828816117ec565b9050919050565b7f457870697279206d75737420626520696e206675747572650000000000000000600082015250565b60006118656018836112b0565b91506118708261182f565b602082019050919050565b6000602082019050818103600083015261189481611858565b9050919050565b7f4e487b7100000000000000000000000000000000000000000000000000000000600052602260045260246000fd5b600060028204905060018216806118e257607f821691505b6020821081036118f5576118f461189b565b5b50919050565b60008190508160005260206000209050919050565b60006020601f8301049050919050565b600082821b905092915050565b60006008830261195d7fffffffffffffffffffffffffffffffffffffffffffffffffffffffffffffffff82611920565b6119678683611920565b95508019841693508086168417925050509392505050565b6000819050919050565b60006119a461199f61199a84610eca565b61197f565b610eca565b9050919050565b6000819050919050565b6119be83611989565b6119d26119ca826119ab565b84845461192d565b825550505050565b600090565b6119e76119da565b6119f28184846119b5565b505050565b5b81811015611a1657611a0b6000826119df565b6001810190506119f8565b5050565b601f821115611a5b57611a2c816118fb565b611a3584611910565b81016020851015611a44578190505b611a58611a5085611910565b8301826119f7565b50505b505050565b600082821c905092915050565b6000611a7e60001984600802611a60565b1980831691505092915050565b6000611a978383611a6d565b9150826002028217905092915050565b611ab0826112a5565b67ffffffffffffffff811115611ac957611ac8610fcc565b5b611ad382546118ca565b611ade828285611a1a565b600060209050601f831160018114611b115760008415611aff578287015190505b611b098582611a8b565b865550611b71565b601f198416611b1f866118fb565b60005b82811015611b4757848901518255600182019150602085019450602081019050611b22565b86831015611b645784890151611b60601f891682611a6d565b8355505b6001600288020188555050505b505050505050565b6000611b8482610eca565b91507fffffffffffffffffffffffffffffffffffffffffffffffffffffffffffffffff8203611bb657611bb56116f4565b5b60018201905091905056fea264697066735822122036c2acda497b780231107ef8c9e95685be57d91895852f2f3217fefef5cc407964736f6c634300081c0033",
  "linkReferences": {},
  "deployedLinkReferences": {}
}